{
  "contractName": "ERC1155MarketPlace",
  "abi": [
    {
      "inputs": [],
      "stateMutability": "nonpayable",
      "type": "constructor"
    },
    {
      "anonymous": false,
      "inputs": [
        {
          "indexed": true,
          "internalType": "address",
          "name": "account",
          "type": "address"
        },
        {
          "indexed": true,
          "internalType": "address",
          "name": "operator",
          "type": "address"
        },
        {
          "indexed": false,
          "internalType": "bool",
          "name": "approved",
          "type": "bool"
        }
      ],
      "name": "ApprovalForAll",
      "type": "event"
    },
    {
      "anonymous": false,
      "inputs": [
        {
          "indexed": true,
          "internalType": "address",
          "name": "previousOwner",
          "type": "address"
        },
        {
          "indexed": true,
          "internalType": "address",
          "name": "newOwner",
          "type": "address"
        }
      ],
      "name": "OwnershipTransferred",
      "type": "event"
    },
    {
      "anonymous": false,
      "inputs": [
        {
          "indexed": false,
          "internalType": "address payable",
          "name": "miner",
          "type": "address"
        },
        {
          "indexed": false,
          "internalType": "uint256",
          "name": "calculateplatformfees",
          "type": "uint256"
        }
      ],
      "name": "Platformfee",
      "type": "event"
    },
    {
      "anonymous": false,
      "inputs": [
        {
          "indexed": false,
          "internalType": "address payable",
          "name": "royaltiesrecipient",
          "type": "address"
        },
        {
          "indexed": false,
          "internalType": "uint256",
          "name": "royaltyAmount",
          "type": "uint256"
        }
      ],
      "name": "Royaltyfee",
      "type": "event"
    },
    {
      "anonymous": false,
      "inputs": [
        {
          "indexed": true,
          "internalType": "address",
          "name": "operator",
          "type": "address"
        },
        {
          "indexed": true,
          "internalType": "address",
          "name": "from",
          "type": "address"
        },
        {
          "indexed": true,
          "internalType": "address",
          "name": "to",
          "type": "address"
        },
        {
          "indexed": false,
          "internalType": "uint256[]",
          "name": "ids",
          "type": "uint256[]"
        },
        {
          "indexed": false,
          "internalType": "uint256[]",
          "name": "values",
          "type": "uint256[]"
        }
      ],
      "name": "TransferBatch",
      "type": "event"
    },
    {
      "anonymous": false,
      "inputs": [
        {
          "indexed": true,
          "internalType": "address",
          "name": "operator",
          "type": "address"
        },
        {
          "indexed": true,
          "internalType": "address",
          "name": "from",
          "type": "address"
        },
        {
          "indexed": true,
          "internalType": "address",
          "name": "to",
          "type": "address"
        },
        {
          "indexed": false,
          "internalType": "uint256",
          "name": "id",
          "type": "uint256"
        },
        {
          "indexed": false,
          "internalType": "uint256",
          "name": "value",
          "type": "uint256"
        }
      ],
      "name": "TransferSingle",
      "type": "event"
    },
    {
      "anonymous": false,
      "inputs": [
        {
          "indexed": false,
          "internalType": "string",
          "name": "value",
          "type": "string"
        },
        {
          "indexed": true,
          "internalType": "uint256",
          "name": "id",
          "type": "uint256"
        }
      ],
      "name": "URI",
      "type": "event"
    },
    {
      "inputs": [],
      "name": "FungileToken",
      "outputs": [
        {
          "internalType": "uint256",
          "name": "",
          "type": "uint256"
        }
      ],
      "stateMutability": "view",
      "type": "function",
      "constant": true
    },
    {
      "inputs": [
        {
          "internalType": "address",
          "name": "account",
          "type": "address"
        },
        {
          "internalType": "uint256",
          "name": "id",
          "type": "uint256"
        }
      ],
      "name": "balanceOf",
      "outputs": [
        {
          "internalType": "uint256",
          "name": "",
          "type": "uint256"
        }
      ],
      "stateMutability": "view",
      "type": "function",
      "constant": true
    },
    {
      "inputs": [
        {
          "internalType": "address[]",
          "name": "accounts",
          "type": "address[]"
        },
        {
          "internalType": "uint256[]",
          "name": "ids",
          "type": "uint256[]"
        }
      ],
      "name": "balanceOfBatch",
      "outputs": [
        {
          "internalType": "uint256[]",
          "name": "",
          "type": "uint256[]"
        }
      ],
      "stateMutability": "view",
      "type": "function",
      "constant": true
    },
    {
      "inputs": [],
      "name": "christmas",
      "outputs": [
        {
          "internalType": "uint256",
          "name": "",
          "type": "uint256"
        }
      ],
      "stateMutability": "view",
      "type": "function",
      "constant": true
    },
    {
      "inputs": [
        {
          "internalType": "address",
          "name": "account",
          "type": "address"
        },
        {
          "internalType": "address",
          "name": "operator",
          "type": "address"
        }
      ],
      "name": "isApprovedForAll",
      "outputs": [
        {
          "internalType": "bool",
          "name": "",
          "type": "bool"
        }
      ],
      "stateMutability": "view",
      "type": "function",
      "constant": true
    },
    {
      "inputs": [],
      "name": "owner",
      "outputs": [
        {
          "internalType": "address",
          "name": "",
          "type": "address"
        }
      ],
      "stateMutability": "view",
      "type": "function",
      "constant": true
    },
    {
      "inputs": [],
      "name": "renounceOwnership",
      "outputs": [],
      "stateMutability": "nonpayable",
      "type": "function"
    },
    {
      "inputs": [
        {
          "internalType": "address",
          "name": "from",
          "type": "address"
        },
        {
          "internalType": "address",
          "name": "to",
          "type": "address"
        },
        {
          "internalType": "uint256[]",
          "name": "ids",
          "type": "uint256[]"
        },
        {
          "internalType": "uint256[]",
          "name": "amounts",
          "type": "uint256[]"
        },
        {
          "internalType": "bytes",
          "name": "data",
          "type": "bytes"
        }
      ],
      "name": "safeBatchTransferFrom",
      "outputs": [],
      "stateMutability": "nonpayable",
      "type": "function"
    },
    {
      "inputs": [
        {
          "internalType": "address",
          "name": "from",
          "type": "address"
        },
        {
          "internalType": "address",
          "name": "to",
          "type": "address"
        },
        {
          "internalType": "uint256",
          "name": "id",
          "type": "uint256"
        },
        {
          "internalType": "uint256",
          "name": "amount",
          "type": "uint256"
        },
        {
          "internalType": "bytes",
          "name": "data",
          "type": "bytes"
        }
      ],
      "name": "safeTransferFrom",
      "outputs": [],
      "stateMutability": "nonpayable",
      "type": "function"
    },
    {
      "inputs": [
        {
          "internalType": "address",
          "name": "operator",
          "type": "address"
        },
        {
          "internalType": "bool",
          "name": "approved",
          "type": "bool"
        }
      ],
      "name": "setApprovalForAll",
      "outputs": [],
      "stateMutability": "nonpayable",
      "type": "function"
    },
    {
      "inputs": [],
      "name": "skypicture",
      "outputs": [
        {
          "internalType": "uint256",
          "name": "",
          "type": "uint256"
        }
      ],
      "stateMutability": "view",
      "type": "function",
      "constant": true
    },
    {
      "inputs": [],
      "name": "sunlightDeviation",
      "outputs": [
        {
          "internalType": "uint256",
          "name": "",
          "type": "uint256"
        }
      ],
      "stateMutability": "view",
      "type": "function",
      "constant": true
    },
    {
      "inputs": [
        {
          "internalType": "bytes4",
          "name": "interfaceId",
          "type": "bytes4"
        }
      ],
      "name": "supportsInterface",
      "outputs": [
        {
          "internalType": "bool",
          "name": "",
          "type": "bool"
        }
      ],
      "stateMutability": "view",
      "type": "function",
      "constant": true
    },
    {
      "inputs": [
        {
          "internalType": "address",
          "name": "newOwner",
          "type": "address"
        }
      ],
      "name": "transferOwnership",
      "outputs": [],
      "stateMutability": "nonpayable",
      "type": "function"
    },
    {
      "inputs": [
        {
          "internalType": "uint256",
          "name": "",
          "type": "uint256"
        }
      ],
      "name": "uri",
      "outputs": [
        {
          "internalType": "string",
          "name": "",
          "type": "string"
        }
      ],
      "stateMutability": "view",
      "type": "function",
      "constant": true
    }
  ],
  "bytecode": "0x60806040523480156200001157600080fd5b506040518060a00160405280606181526020016200427c606191396200003d81620000f260201b60201c565b506200005e620000526200010e60201b60201c565b6200011660201b60201c565b620000796000670de0b6b3a7640000620001dc60201b60201c565b50620000a03360016107d060405180602001604052806000815250620002ef60201b60201c565b620000c63360026103e860405180602001604052806000815250620002ef60201b60201c565b620000ec33600361051460405180602001604052806000815250620002ef60201b60201c565b62000ec5565b80600290805190602001906200010a929190620007b2565b5050565b600033905090565b6000600360009054906101000a900473ffffffffffffffffffffffffffffffffffffffff16905081600360006101000a81548173ffffffffffffffffffffffffffffffffffffffff021916908373ffffffffffffffffffffffffffffffffffffffff1602179055508173ffffffffffffffffffffffffffffffffffffffff168173ffffffffffffffffffffffffffffffffffffffff167f8be0079c531659141344cd1fd0a4f28419497f9722a3daafe3b4186f6b6457e060405160405180910390a35050565b6000620001ee6200010e60201b60201c565b73ffffffffffffffffffffffffffffffffffffffff1662000214620004b460201b60201c565b73ffffffffffffffffffffffffffffffffffffffff16146200026d576040517f08c379a0000000000000000000000000000000000000000000000000000000008152600401620002649062000b8f565b60405180910390fd5b816007600085815260200190815260200160002060003373ffffffffffffffffffffffffffffffffffffffff1673ffffffffffffffffffffffffffffffffffffffff16815260200190815260200160002081905550620002e533848460405180602001604052806000815250620002ef60201b60201c565b6001905092915050565b600073ffffffffffffffffffffffffffffffffffffffff168473ffffffffffffffffffffffffffffffffffffffff16141562000362576040517f08c379a0000000000000000000000000000000000000000000000000000000008152600401620003599062000bb1565b60405180910390fd5b6000620003746200010e60201b60201c565b9050620003ad816000876200038f88620004de60201b60201c565b620003a088620004de60201b60201c565b87620005a760201b60201c565b8260008086815260200190815260200160002060008773ffffffffffffffffffffffffffffffffffffffff1673ffffffffffffffffffffffffffffffffffffffff16815260200190815260200160002060008282546200040e919062000c38565b925050819055508473ffffffffffffffffffffffffffffffffffffffff16600073ffffffffffffffffffffffffffffffffffffffff168273ffffffffffffffffffffffffffffffffffffffff167fc3d58168c5ae7397731d063d5bbf3d657854427343f4c083240f7aacaa2d0f6287876040516200048e92919062000bd3565b60405180910390a4620004ad81600087878787620005af60201b60201c565b5050505050565b6000600360009054906101000a900473ffffffffffffffffffffffffffffffffffffffff16905090565b60606000600167ffffffffffffffff81111562000524577f4e487b7100000000000000000000000000000000000000000000000000000000600052604160045260246000fd5b604051908082528060200260200182016040528015620005535781602001602082028036833780820191505090505b509050828160008151811062000592577f4e487b7100000000000000000000000000000000000000000000000000000000600052603260045260246000fd5b60200260200101818152505080915050919050565b505050505050565b620005db8473ffffffffffffffffffffffffffffffffffffffff166200079f60201b62000a931760201c565b1562000797578373ffffffffffffffffffffffffffffffffffffffff1663f23a6e6187878686866040518663ffffffff1660e01b81526004016200062495949392919062000ac3565b602060405180830381600087803b1580156200063f57600080fd5b505af19250505080156200067357506040513d601f19601f8201168201806040525081019062000670919062000879565b60015b6200070b576200068262000de7565b806200068f5750620006ce565b806040517f08c379a0000000000000000000000000000000000000000000000000000000008152600401620006c5919062000b27565b60405180910390fd5b6040517f08c379a0000000000000000000000000000000000000000000000000000000008152600401620007029062000b4b565b60405180910390fd5b63f23a6e6160e01b7bffffffffffffffffffffffffffffffffffffffffffffffffffffffff1916817bffffffffffffffffffffffffffffffffffffffffffffffffffffffff19161462000795576040517f08c379a00000000000000000000000000000000000000000000000000000000081526004016200078c9062000b6d565b60405180910390fd5b505b505050505050565b600080823b905060008111915050919050565b828054620007c09062000d35565b90600052602060002090601f016020900481019282620007e4576000855562000830565b82601f10620007ff57805160ff191683800117855562000830565b8280016001018555821562000830579182015b828111156200082f57825182559160200191906001019062000812565b5b5090506200083f919062000843565b5090565b5b808211156200085e57600081600090555060010162000844565b5090565b600081519050620008738162000eab565b92915050565b6000602082840312156200088c57600080fd5b60006200089c8482850162000862565b91505092915050565b620008b08162000c95565b82525050565b6000620008c38262000c00565b620008cf818562000c16565b9350620008e181856020860162000cff565b620008ec8162000dc9565b840191505092915050565b6000620009048262000c0b565b62000910818562000c27565b93506200092281856020860162000cff565b6200092d8162000dc9565b840191505092915050565b60006200094760348362000c27565b91507f455243313135353a207472616e7366657220746f206e6f6e204552433131353560008301527f526563656976657220696d706c656d656e7465720000000000000000000000006020830152604082019050919050565b6000620009af60288362000c27565b91507f455243313135353a204552433131353552656365697665722072656a6563746560008301527f6420746f6b656e730000000000000000000000000000000000000000000000006020830152604082019050919050565b600062000a1760208362000c27565b91507f4f776e61626c653a2063616c6c6572206973206e6f7420746865206f776e65726000830152602082019050919050565b600062000a5960218362000c27565b91507f455243313135353a206d696e7420746f20746865207a65726f2061646472657360008301527f73000000000000000000000000000000000000000000000000000000000000006020830152604082019050919050565b62000abd8162000cf5565b82525050565b600060a08201905062000ada6000830188620008a5565b62000ae96020830187620008a5565b62000af8604083018662000ab2565b62000b07606083018562000ab2565b818103608083015262000b1b8184620008b6565b90509695505050505050565b6000602082019050818103600083015262000b438184620008f7565b905092915050565b6000602082019050818103600083015262000b668162000938565b9050919050565b6000602082019050818103600083015262000b8881620009a0565b9050919050565b6000602082019050818103600083015262000baa8162000a08565b9050919050565b6000602082019050818103600083015262000bcc8162000a4a565b9050919050565b600060408201905062000bea600083018562000ab2565b62000bf9602083018462000ab2565b9392505050565b600081519050919050565b600081519050919050565b600082825260208201905092915050565b600082825260208201905092915050565b600062000c458262000cf5565b915062000c528362000cf5565b9250827fffffffffffffffffffffffffffffffffffffffffffffffffffffffffffffffff0382111562000c8a5762000c8962000d6b565b5b828201905092915050565b600062000ca28262000cd5565b9050919050565b60007fffffffff0000000000000000000000000000000000000000000000000000000082169050919050565b600073ffffffffffffffffffffffffffffffffffffffff82169050919050565b6000819050919050565b60005b8381101562000d1f57808201518184015260208101905062000d02565b8381111562000d2f576000848401525b50505050565b6000600282049050600182168062000d4e57607f821691505b6020821081141562000d655762000d6462000d9a565b5b50919050565b7f4e487b7100000000000000000000000000000000000000000000000000000000600052601160045260246000fd5b7f4e487b7100000000000000000000000000000000000000000000000000000000600052602260045260246000fd5b6000601f19601f8301169050919050565b60008160e01c9050919050565b600060443d101562000df95762000ea8565b60046000803e62000e0c60005162000dda565b6308c379a0811462000e1f575062000ea8565b60405160043d036004823e80513d602482011167ffffffffffffffff8211171562000e4d5750505062000ea8565b808201805167ffffffffffffffff81111562000e6e57505050505062000ea8565b8060208301013d850181111562000e8b5750505050505062000ea8565b62000e968262000dc9565b60208401016040528296505050505050505b90565b62000eb68162000ca9565b811462000ec257600080fd5b50565b6133a78062000ed56000396000f3fe608060405234801561001057600080fd5b50600436106100f45760003560e01c8063715018a611610097578063a22cb46511610066578063a22cb46514610275578063e985e9c514610291578063f242432a146102c1578063f2fde38b146102dd576100f4565b8063715018a61461021157806380c9bd481461021b5780638160f3d2146102395780638da5cb5b14610257576100f4565b80630e89341c116100d35780630e89341c146101775780632eb2c2d6146101a75780634e1273f4146101c3578063599cd146146101f3576100f4565b8062fdd58e146100f957806301ffc9a7146101295780630d5a1ab314610159575b600080fd5b610113600480360381019061010e9190612193565b6102f9565b6040516101209190612dbf565b60405180910390f35b610143600480360381019061013e919061223b565b6103c2565b6040516101509190612b82565b60405180910390f35b6101616104a4565b60405161016e9190612dbf565b60405180910390f35b610191600480360381019061018c919061228d565b6104a9565b60405161019e9190612b9d565b60405180910390f35b6101c160048036038101906101bc9190612009565b61053d565b005b6101dd60048036038101906101d891906121cf565b6105de565b6040516101ea9190612b29565b60405180910390f35b6101fb61078f565b6040516102089190612dbf565b60405180910390f35b610219610794565b005b61022361081c565b6040516102309190612dbf565b60405180910390f35b610241610821565b60405161024e9190612dbf565b60405180910390f35b61025f610826565b60405161026c9190612a23565b60405180910390f35b61028f600480360381019061028a9190612157565b610850565b005b6102ab60048036038101906102a69190611fcd565b610866565b6040516102b89190612b82565b60405180910390f35b6102db60048036038101906102d691906120c8565b6108fa565b005b6102f760048036038101906102f29190611fa4565b61099b565b005b60008073ffffffffffffffffffffffffffffffffffffffff168373ffffffffffffffffffffffffffffffffffffffff16141561036a576040517f08c379a000000000000000000000000000000000000000000000000000000000815260040161036190612bff565b60405180910390fd5b60008083815260200190815260200160002060008473ffffffffffffffffffffffffffffffffffffffff1673ffffffffffffffffffffffffffffffffffffffff16815260200190815260200160002054905092915050565b60007fd9b67a26000000000000000000000000000000000000000000000000000000007bffffffffffffffffffffffffffffffffffffffffffffffffffffffff1916827bffffffffffffffffffffffffffffffffffffffffffffffffffffffff1916148061048d57507f0e89341c000000000000000000000000000000000000000000000000000000007bffffffffffffffffffffffffffffffffffffffffffffffffffffffff1916827bffffffffffffffffffffffffffffffffffffffffffffffffffffffff1916145b8061049d575061049c82610aa6565b5b9050919050565b600381565b6060600280546104b89061310a565b80601f01602080910402602001604051908101604052809291908181526020018280546104e49061310a565b80156105315780601f1061050657610100808354040283529160200191610531565b820191906000526020600020905b81548152906001019060200180831161051457829003601f168201915b50505050509050919050565b610545610b10565b73ffffffffffffffffffffffffffffffffffffffff168573ffffffffffffffffffffffffffffffffffffffff16148061058b575061058a85610585610b10565b610866565b5b6105ca576040517f08c379a00000000000000000000000000000000000000000000000000000000081526004016105c190612c9f565b60405180910390fd5b6105d78585858585610b18565b5050505050565b60608151835114610624576040517f08c379a000000000000000000000000000000000000000000000000000000000815260040161061b90612d5f565b60405180910390fd5b6000835167ffffffffffffffff811115610667577f4e487b7100000000000000000000000000000000000000000000000000000000600052604160045260246000fd5b6040519080825280602002602001820160405280156106955781602001602082028036833780820191505090505b50905060005b84518110156107845761072e8582815181106106e0577f4e487b7100000000000000000000000000000000000000000000000000000000600052603260045260246000fd5b6020026020010151858381518110610721577f4e487b7100000000000000000000000000000000000000000000000000000000600052603260045260246000fd5b60200260200101516102f9565b828281518110610767577f4e487b7100000000000000000000000000000000000000000000000000000000600052603260045260246000fd5b6020026020010181815250508061077d9061313c565b905061069b565b508091505092915050565b600081565b61079c610b10565b73ffffffffffffffffffffffffffffffffffffffff166107ba610826565b73ffffffffffffffffffffffffffffffffffffffff1614610810576040517f08c379a000000000000000000000000000000000000000000000000000000000815260040161080790612d1f565b60405180910390fd5b61081a6000610b4b565b565b600181565b600281565b6000600360009054906101000a900473ffffffffffffffffffffffffffffffffffffffff16905090565b61086261085b610b10565b8383610c11565b5050565b6000600160008473ffffffffffffffffffffffffffffffffffffffff1673ffffffffffffffffffffffffffffffffffffffff16815260200190815260200160002060008373ffffffffffffffffffffffffffffffffffffffff1673ffffffffffffffffffffffffffffffffffffffff16815260200190815260200160002060009054906101000a900460ff16905092915050565b610902610b10565b73ffffffffffffffffffffffffffffffffffffffff168573ffffffffffffffffffffffffffffffffffffffff161480610948575061094785610942610b10565b610866565b5b610987576040517f08c379a000000000000000000000000000000000000000000000000000000000815260040161097e90612c5f565b60405180910390fd5b6109948585858585610d7e565b5050505050565b6109a3610b10565b73ffffffffffffffffffffffffffffffffffffffff166109c1610826565b73ffffffffffffffffffffffffffffffffffffffff1614610a17576040517f08c379a0000000000000000000000000000000000000000000000000000000008152600401610a0e90612d1f565b60405180910390fd5b600073ffffffffffffffffffffffffffffffffffffffff168173ffffffffffffffffffffffffffffffffffffffff161415610a87576040517f08c379a0000000000000000000000000000000000000000000000000000000008152600401610a7e90612c1f565b60405180910390fd5b610a9081610b4b565b50565b600080823b905060008111915050919050565b60007f01ffc9a7000000000000000000000000000000000000000000000000000000007bffffffffffffffffffffffffffffffffffffffffffffffffffffffff1916827bffffffffffffffffffffffffffffffffffffffffffffffffffffffff1916149050919050565b600033905090565b610b258585858585611000565b610b2f8383611360565b610b3a8584846114b4565b610b4483836116c3565b5050505050565b6000600360009054906101000a900473ffffffffffffffffffffffffffffffffffffffff16905081600360006101000a81548173ffffffffffffffffffffffffffffffffffffffff021916908373ffffffffffffffffffffffffffffffffffffffff1602179055508173ffffffffffffffffffffffffffffffffffffffff168173ffffffffffffffffffffffffffffffffffffffff167f8be0079c531659141344cd1fd0a4f28419497f9722a3daafe3b4186f6b6457e060405160405180910390a35050565b8173ffffffffffffffffffffffffffffffffffffffff168373ffffffffffffffffffffffffffffffffffffffff161415610c80576040517f08c379a0000000000000000000000000000000000000000000000000000000008152600401610c7790612d3f565b60405180910390fd5b80600160008573ffffffffffffffffffffffffffffffffffffffff1673ffffffffffffffffffffffffffffffffffffffff16815260200190815260200160002060008473ffffffffffffffffffffffffffffffffffffffff1673ffffffffffffffffffffffffffffffffffffffff16815260200190815260200160002060006101000a81548160ff0219169083151502179055508173ffffffffffffffffffffffffffffffffffffffff168373ffffffffffffffffffffffffffffffffffffffff167f17307eab39ab6107e8899845ad3d59bd9653f200f220920489ca2b5937696c3183604051610d719190612b82565b60405180910390a3505050565b600073ffffffffffffffffffffffffffffffffffffffff168473ffffffffffffffffffffffffffffffffffffffff161415610dee576040517f08c379a0000000000000000000000000000000000000000000000000000000008152600401610de590612c7f565b60405180910390fd5b6000610df8610b10565b9050610e18818787610e0988611939565b610e1288611939565b876119ff565b600080600086815260200190815260200160002060008873ffffffffffffffffffffffffffffffffffffffff1673ffffffffffffffffffffffffffffffffffffffff16815260200190815260200160002054905083811015610eaf576040517f08c379a0000000000000000000000000000000000000000000000000000000008152600401610ea690612cdf565b60405180910390fd5b83810360008087815260200190815260200160002060008973ffffffffffffffffffffffffffffffffffffffff1673ffffffffffffffffffffffffffffffffffffffff168152602001908152602001600020819055508360008087815260200190815260200160002060008873ffffffffffffffffffffffffffffffffffffffff1673ffffffffffffffffffffffffffffffffffffffff1681526020019081526020016000206000828254610f649190612f2d565b925050819055508573ffffffffffffffffffffffffffffffffffffffff168773ffffffffffffffffffffffffffffffffffffffff168373ffffffffffffffffffffffffffffffffffffffff167fc3d58168c5ae7397731d063d5bbf3d657854427343f4c083240f7aacaa2d0f628888604051610fe1929190612dda565b60405180910390a4610ff7828888888888611a07565b50505050505050565b8151835114611044576040517f08c379a000000000000000000000000000000000000000000000000000000000815260040161103b90612d7f565b60405180910390fd5b600073ffffffffffffffffffffffffffffffffffffffff168473ffffffffffffffffffffffffffffffffffffffff1614156110b4576040517f08c379a00000000000000000000000000000000000000000000000000000000081526004016110ab90612c7f565b60405180910390fd5b60006110be610b10565b90506110ce8187878787876119ff565b60005b84518110156112cb576000858281518110611115577f4e487b7100000000000000000000000000000000000000000000000000000000600052603260045260246000fd5b60200260200101519050600085838151811061115a577f4e487b7100000000000000000000000000000000000000000000000000000000600052603260045260246000fd5b60200260200101519050600080600084815260200190815260200160002060008b73ffffffffffffffffffffffffffffffffffffffff1673ffffffffffffffffffffffffffffffffffffffff168152602001908152602001600020549050818110156111fb576040517f08c379a00000000000000000000000000000000000000000000000000000000081526004016111f290612cdf565b60405180910390fd5b81810360008085815260200190815260200160002060008c73ffffffffffffffffffffffffffffffffffffffff1673ffffffffffffffffffffffffffffffffffffffff168152602001908152602001600020819055508160008085815260200190815260200160002060008b73ffffffffffffffffffffffffffffffffffffffff1673ffffffffffffffffffffffffffffffffffffffff16815260200190815260200160002060008282546112b09190612f2d565b92505081905550505050806112c49061313c565b90506110d1565b508473ffffffffffffffffffffffffffffffffffffffff168673ffffffffffffffffffffffffffffffffffffffff168273ffffffffffffffffffffffffffffffffffffffff167f4a39dc06d4c0dbc64b70af90fd698a233a518aa5d07e595d983b8c0526c8f7fb8787604051611342929190612b4b565b60405180910390a4611358818787878787611bd7565b505050505050565b60005b82518110156114af5760008382815181106113a7577f4e487b7100000000000000000000000000000000000000000000000000000000600052603260045260246000fd5b6020026020010151905060008383815181106113ec577f4e487b7100000000000000000000000000000000000000000000000000000000600052603260045260246000fd5b6020026020010151905060006006600084815260200190815260200160002080546114169061310a565b905014611458576040517f08c379a000000000000000000000000000000000000000000000000000000000815260040161144f90612cbf565b60405180910390fd5b80341061149a576040517f08c379a000000000000000000000000000000000000000000000000000000000815260040161149190612c3f565b60405180910390fd5b505080806114a79061313c565b915050611363565b505050565b60005b82518110156116bd5760008282815181106114fb577f4e487b7100000000000000000000000000000000000000000000000000000000600052603260045260246000fd5b602002602001015190506000606482600a60196115189190612f83565b6115229190612fb4565b61152c9190612f83565b9050806007600080815260200190815260200160002060008873ffffffffffffffffffffffffffffffffffffffff1673ffffffffffffffffffffffffffffffffffffffff1681526020019081526020016000205410156115c1576040517f08c379a00000000000000000000000000000000000000000000000000000000081526004016115b890612d9f565b60405180910390fd5b806007600080815260200190815260200160002060008873ffffffffffffffffffffffffffffffffffffffff1673ffffffffffffffffffffffffffffffffffffffff1681526020019081526020016000206000828254611621919061300e565b925050819055504173ffffffffffffffffffffffffffffffffffffffff166108fc829081150290604051600060405180830381858888f1935050505015801561166e573d6000803e3d6000fd5b507f8495d5493efd4805d3d5a1ed9c4b88dfab8207a1ad356e96e1511254f41b90c041826040516116a0929190612a3e565b60405180910390a1505080806116b59061313c565b9150506114b7565b50505050565b60005b825181101561193457600083828151811061170a577f4e487b7100000000000000000000000000000000000000000000000000000000600052603260045260246000fd5b60200260200101519050600083838151811061174f577f4e487b7100000000000000000000000000000000000000000000000000000000600052603260045260246000fd5b602002602001015190506000600460008481526020019081526020016000206040518060600160405290816000820160009054906101000a900473ffffffffffffffffffffffffffffffffffffffff1673ffffffffffffffffffffffffffffffffffffffff1673ffffffffffffffffffffffffffffffffffffffff168152602001600182015481526020016002820154815250509050600060106001846117f69190612fb4565b6118009190612f83565b9050806007600080815260200190815260200160002060003373ffffffffffffffffffffffffffffffffffffffff1673ffffffffffffffffffffffffffffffffffffffff168152602001908152602001600020541015611895576040517f08c379a000000000000000000000000000000000000000000000000000000000815260040161188c90612cff565b60405180910390fd5b816000015173ffffffffffffffffffffffffffffffffffffffff166108fc829081150290604051600060405180830381858888f193505050501580156118df573d6000803e3d6000fd5b507f9f82b82f1cc3523cb0239707a51e1a0c27281b7aece15f7d70c21bcc774a45a7826000015182604051611915929190612a3e565b60405180910390a150505050808061192c9061313c565b9150506116c6565b505050565b60606000600167ffffffffffffffff81111561197e577f4e487b7100000000000000000000000000000000000000000000000000000000600052604160045260246000fd5b6040519080825280602002602001820160405280156119ac5781602001602082028036833780820191505090505b50905082816000815181106119ea577f4e487b7100000000000000000000000000000000000000000000000000000000600052603260045260246000fd5b60200260200101818152505080915050919050565b505050505050565b611a268473ffffffffffffffffffffffffffffffffffffffff16610a93565b15611bcf578373ffffffffffffffffffffffffffffffffffffffff1663f23a6e6187878686866040518663ffffffff1660e01b8152600401611a6c959493929190612acf565b602060405180830381600087803b158015611a8657600080fd5b505af1925050508015611ab757506040513d601f19601f82011682018060405250810190611ab49190612264565b60015b611b4657611ac361325f565b80611ace5750611b0b565b806040517f08c379a0000000000000000000000000000000000000000000000000000000008152600401611b029190612b9d565b60405180910390fd5b6040517f08c379a0000000000000000000000000000000000000000000000000000000008152600401611b3d90612bbf565b60405180910390fd5b63f23a6e6160e01b7bffffffffffffffffffffffffffffffffffffffffffffffffffffffff1916817bffffffffffffffffffffffffffffffffffffffffffffffffffffffff191614611bcd576040517f08c379a0000000000000000000000000000000000000000000000000000000008152600401611bc490612bdf565b60405180910390fd5b505b505050505050565b611bf68473ffffffffffffffffffffffffffffffffffffffff16610a93565b15611d9f578373ffffffffffffffffffffffffffffffffffffffff1663bc197c8187878686866040518663ffffffff1660e01b8152600401611c3c959493929190612a67565b602060405180830381600087803b158015611c5657600080fd5b505af1925050508015611c8757506040513d601f19601f82011682018060405250810190611c849190612264565b60015b611d1657611c9361325f565b80611c9e5750611cdb565b806040517f08c379a0000000000000000000000000000000000000000000000000000000008152600401611cd29190612b9d565b60405180910390fd5b6040517f08c379a0000000000000000000000000000000000000000000000000000000008152600401611d0d90612bbf565b60405180910390fd5b63bc197c8160e01b7bffffffffffffffffffffffffffffffffffffffffffffffffffffffff1916817bffffffffffffffffffffffffffffffffffffffffffffffffffffffff191614611d9d576040517f08c379a0000000000000000000000000000000000000000000000000000000008152600401611d9490612bdf565b60405180910390fd5b505b505050505050565b6000611dba611db584612e34565b612e03565b90508083825260208201905082856020860282011115611dd957600080fd5b60005b85811015611e095781611def8882611ebd565b845260208401935060208301925050600181019050611ddc565b5050509392505050565b6000611e26611e2184612e60565b612e03565b90508083825260208201905082856020860282011115611e4557600080fd5b60005b85811015611e755781611e5b8882611f8f565b845260208401935060208301925050600181019050611e48565b5050509392505050565b6000611e92611e8d84612e8c565b612e03565b905082815260208101848484011115611eaa57600080fd5b611eb58482856130c8565b509392505050565b600081359050611ecc81613315565b92915050565b600082601f830112611ee357600080fd5b8135611ef3848260208601611da7565b91505092915050565b600082601f830112611f0d57600080fd5b8135611f1d848260208601611e13565b91505092915050565b600081359050611f358161332c565b92915050565b600081359050611f4a81613343565b92915050565b600081519050611f5f81613343565b92915050565b600082601f830112611f7657600080fd5b8135611f86848260208601611e7f565b91505092915050565b600081359050611f9e8161335a565b92915050565b600060208284031215611fb657600080fd5b6000611fc484828501611ebd565b91505092915050565b60008060408385031215611fe057600080fd5b6000611fee85828601611ebd565b9250506020611fff85828601611ebd565b9150509250929050565b600080600080600060a0868803121561202157600080fd5b600061202f88828901611ebd565b955050602061204088828901611ebd565b945050604086013567ffffffffffffffff81111561205d57600080fd5b61206988828901611efc565b935050606086013567ffffffffffffffff81111561208657600080fd5b61209288828901611efc565b925050608086013567ffffffffffffffff8111156120af57600080fd5b6120bb88828901611f65565b9150509295509295909350565b600080600080600060a086880312156120e057600080fd5b60006120ee88828901611ebd565b95505060206120ff88828901611ebd565b945050604061211088828901611f8f565b935050606061212188828901611f8f565b925050608086013567ffffffffffffffff81111561213e57600080fd5b61214a88828901611f65565b9150509295509295909350565b6000806040838503121561216a57600080fd5b600061217885828601611ebd565b925050602061218985828601611f26565b9150509250929050565b600080604083850312156121a657600080fd5b60006121b485828601611ebd565b92505060206121c585828601611f8f565b9150509250929050565b600080604083850312156121e257600080fd5b600083013567ffffffffffffffff8111156121fc57600080fd5b61220885828601611ed2565b925050602083013567ffffffffffffffff81111561222557600080fd5b61223185828601611efc565b9150509250929050565b60006020828403121561224d57600080fd5b600061225b84828501611f3b565b91505092915050565b60006020828403121561227657600080fd5b600061228484828501611f50565b91505092915050565b60006020828403121561229f57600080fd5b60006122ad84828501611f8f565b91505092915050565b60006122c28383612a05565b60208301905092915050565b6122d781613054565b82525050565b6122e681613042565b82525050565b60006122f782612ecc565b6123018185612efa565b935061230c83612ebc565b8060005b8381101561233d57815161232488826122b6565b975061232f83612eed565b925050600181019050612310565b5085935050505092915050565b61235381613066565b82525050565b600061236482612ed7565b61236e8185612f0b565b935061237e8185602086016130d7565b61238781613241565b840191505092915050565b600061239d82612ee2565b6123a78185612f1c565b93506123b78185602086016130d7565b6123c081613241565b840191505092915050565b60006123d8603483612f1c565b91507f455243313135353a207472616e7366657220746f206e6f6e204552433131353560008301527f526563656976657220696d706c656d656e7465720000000000000000000000006020830152604082019050919050565b600061243e602883612f1c565b91507f455243313135353a204552433131353552656365697665722072656a6563746560008301527f6420746f6b656e730000000000000000000000000000000000000000000000006020830152604082019050919050565b60006124a4602b83612f1c565b91507f455243313135353a2062616c616e636520717565727920666f7220746865207a60008301527f65726f20616464726573730000000000000000000000000000000000000000006020830152604082019050919050565b600061250a602683612f1c565b91507f4f776e61626c653a206e6577206f776e657220697320746865207a65726f206160008301527f64647265737300000000000000000000000000000000000000000000000000006020830152604082019050919050565b6000612570603483612f1c565b91507f4572726f722c20496e73756666696369656e742062616c616e636520746f207060008301527f7572636861736520746869732070726f647563740000000000000000000000006020830152604082019050919050565b60006125d6602983612f1c565b91507f455243313135353a2063616c6c6572206973206e6f74206f776e6572206e6f7260008301527f20617070726f76656400000000000000000000000000000000000000000000006020830152604082019050919050565b600061263c602583612f1c565b91507f455243313135353a207472616e7366657220746f20746865207a65726f20616460008301527f64726573730000000000000000000000000000000000000000000000000000006020830152604082019050919050565b60006126a2603283612f1c565b91507f455243313135353a207472616e736665722063616c6c6572206973206e6f742060008301527f6f776e6572206e6f7220617070726f76656400000000000000000000000000006020830152604082019050919050565b6000612708602a83612f1c565b91507f4572726f722c70726f64756374206973206e6f742070726573656e7420696e2060008301527f746865206c6564676572000000000000000000000000000000000000000000006020830152604082019050919050565b600061276e602a83612f1c565b91507f455243313135353a20696e73756666696369656e742062616c616e636520666f60008301527f72207472616e73666572000000000000000000000000000000000000000000006020830152604082019050919050565b60006127d4603983612f1c565b91507f4572726f722c207468657265206973206e6f20656e6f75676820616d6f756e7460008301527f20666f7220706179696e6720706c6174666f726d2066656573000000000000006020830152604082019050919050565b600061283a602083612f1c565b91507f4f776e61626c653a2063616c6c6572206973206e6f7420746865206f776e65726000830152602082019050919050565b600061287a602983612f1c565b91507f455243313135353a2073657474696e6720617070726f76616c2073746174757360008301527f20666f722073656c6600000000000000000000000000000000000000000000006020830152604082019050919050565b60006128e0602983612f1c565b91507f455243313135353a206163636f756e747320616e6420696473206c656e67746860008301527f206d69736d6174636800000000000000000000000000000000000000000000006020830152604082019050919050565b6000612946602883612f1c565b91507f455243313135353a2069647320616e6420616d6f756e7473206c656e6774682060008301527f6d69736d617463680000000000000000000000000000000000000000000000006020830152604082019050919050565b60006129ac603383612f1c565b91507f4572726f722c207468657265206973206e6f20656e6f75676820706c6174666f60008301527f726d2066656520666f72207472616e73666572000000000000000000000000006020830152604082019050919050565b612a0e816130be565b82525050565b612a1d816130be565b82525050565b6000602082019050612a3860008301846122dd565b92915050565b6000604082019050612a5360008301856122ce565b612a606020830184612a14565b9392505050565b600060a082019050612a7c60008301886122dd565b612a8960208301876122dd565b8181036040830152612a9b81866122ec565b90508181036060830152612aaf81856122ec565b90508181036080830152612ac38184612359565b90509695505050505050565b600060a082019050612ae460008301886122dd565b612af160208301876122dd565b612afe6040830186612a14565b612b0b6060830185612a14565b8181036080830152612b1d8184612359565b90509695505050505050565b60006020820190508181036000830152612b4381846122ec565b905092915050565b60006040820190508181036000830152612b6581856122ec565b90508181036020830152612b7981846122ec565b90509392505050565b6000602082019050612b97600083018461234a565b92915050565b60006020820190508181036000830152612bb78184612392565b905092915050565b60006020820190508181036000830152612bd8816123cb565b9050919050565b60006020820190508181036000830152612bf881612431565b9050919050565b60006020820190508181036000830152612c1881612497565b9050919050565b60006020820190508181036000830152612c38816124fd565b9050919050565b60006020820190508181036000830152612c5881612563565b9050919050565b60006020820190508181036000830152612c78816125c9565b9050919050565b60006020820190508181036000830152612c988161262f565b9050919050565b60006020820190508181036000830152612cb881612695565b9050919050565b60006020820190508181036000830152612cd8816126fb565b9050919050565b60006020820190508181036000830152612cf881612761565b9050919050565b60006020820190508181036000830152612d18816127c7565b9050919050565b60006020820190508181036000830152612d388161282d565b9050919050565b60006020820190508181036000830152612d588161286d565b9050919050565b60006020820190508181036000830152612d78816128d3565b9050919050565b60006020820190508181036000830152612d9881612939565b9050919050565b60006020820190508181036000830152612db88161299f565b9050919050565b6000602082019050612dd46000830184612a14565b92915050565b6000604082019050612def6000830185612a14565b612dfc6020830184612a14565b9392505050565b6000604051905081810181811067ffffffffffffffff82111715612e2a57612e29613212565b5b8060405250919050565b600067ffffffffffffffff821115612e4f57612e4e613212565b5b602082029050602081019050919050565b600067ffffffffffffffff821115612e7b57612e7a613212565b5b602082029050602081019050919050565b600067ffffffffffffffff821115612ea757612ea6613212565b5b601f19601f8301169050602081019050919050565b6000819050602082019050919050565b600081519050919050565b600081519050919050565b600081519050919050565b6000602082019050919050565b600082825260208201905092915050565b600082825260208201905092915050565b600082825260208201905092915050565b6000612f38826130be565b9150612f43836130be565b9250827fffffffffffffffffffffffffffffffffffffffffffffffffffffffffffffffff03821115612f7857612f77613185565b5b828201905092915050565b6000612f8e826130be565b9150612f99836130be565b925082612fa957612fa86131b4565b5b828204905092915050565b6000612fbf826130be565b9150612fca836130be565b9250817fffffffffffffffffffffffffffffffffffffffffffffffffffffffffffffffff048311821515161561300357613002613185565b5b828202905092915050565b6000613019826130be565b9150613024836130be565b92508282101561303757613036613185565b5b828203905092915050565b600061304d8261309e565b9050919050565b600061305f8261309e565b9050919050565b60008115159050919050565b60007fffffffff0000000000000000000000000000000000000000000000000000000082169050919050565b600073ffffffffffffffffffffffffffffffffffffffff82169050919050565b6000819050919050565b82818337600083830152505050565b60005b838110156130f55780820151818401526020810190506130da565b83811115613104576000848401525b50505050565b6000600282049050600182168061312257607f821691505b60208210811415613136576131356131e3565b5b50919050565b6000613147826130be565b91507fffffffffffffffffffffffffffffffffffffffffffffffffffffffffffffffff82141561317a57613179613185565b5b600182019050919050565b7f4e487b7100000000000000000000000000000000000000000000000000000000600052601160045260246000fd5b7f4e487b7100000000000000000000000000000000000000000000000000000000600052601260045260246000fd5b7f4e487b7100000000000000000000000000000000000000000000000000000000600052602260045260246000fd5b7f4e487b7100000000000000000000000000000000000000000000000000000000600052604160045260246000fd5b6000601f19601f8301169050919050565b60008160e01c9050919050565b600060443d101561326f57613312565b60046000803e613280600051613252565b6308c379a081146132915750613312565b60405160043d036004823e80513d602482011167ffffffffffffffff821117156132bd57505050613312565b808201805167ffffffffffffffff8111156132dc575050505050613312565b8060208301013d85018111156132f757505050505050613312565b61330082613241565b60208401016040528296505050505050505b90565b61331e81613042565b811461332957600080fd5b50565b61333581613066565b811461334057600080fd5b50565b61334c81613072565b811461335757600080fd5b50565b613363816130be565b811461336e57600080fd5b5056fea26469706673582212201568d8bc66a397ba5531c70840ecded5b3f3dd77596467c58a8f20b41522264a64736f6c6343000800003368747470733a2f2f62616679626569637673733371696578783473726c376a756e6a643361757172733467737a356d74676f6c786f666a61653264787764753269616d2e697066732e647765622e6c696e6b2f7b746f6b656e49647d2e6a736f6e",
  "immutableReferences": {},
  "source": "pragma solidity ^0.8.0;\r\nimport \"../node_modules/@openzeppelin/contracts/token/ERC1155/ERC1155.sol\";\r\nimport \"../node_modules/@openzeppelin/contracts/access/Ownable.sol\";\r\nimport \"../node_modules/@openzeppelin/contracts/utils/Strings.sol\";\r\nimport \"../node_modules/@openzeppelin/contracts/utils/introspection/ERC165.sol\";\r\n\r\ncontract ERC1155MarketPlace is ERC1155,Ownable {\r\n    struct TokenRoyaltyDetials {\r\n        address payable recipient;\r\n        uint256 tokenName;\r\n        uint256 amount;\r\n    }\r\n    mapping(uint256 => TokenRoyaltyDetials) internal _royaltyDetail;\r\n    uint256 public constant FungileToken = 0;\r\n    uint256 public constant skypicture = 1;\r\n    uint256 public constant sunlightDeviation = 2;\r\n    uint256 public constant christmas =3;\r\n    string private _uri;\r\n    mapping(uint256 => string) private _uris;\r\n    mapping(uint256 => mapping(address => uint256)) _balances ;\r\n    \r\n    event Platformfee(address payable miner, uint256 calculateplatformfees);\r\n    event Royaltyfee(address payable royaltiesrecipient, uint256 royaltyAmount);\r\n    constructor() ERC1155 (\"https://bafybeicvss3qiexx4srl7junjd3auqrs4gsz5mtgolxofjae2dxwdu2iam.ipfs.dweb.link/{tokenId}.json\") {\r\n        _mintForFungileToken(FungileToken, 10**18);\r\n        _mint(msg.sender,skypicture,2000,\"\");\r\n        _mint(msg.sender,sunlightDeviation,1000,\"\");\r\n        _mint(msg.sender,christmas,1300,\"\");\r\n      } \r\n\r\n    function _mintForFungileToken (uint256 tokenId, uint256 _price)  \r\n     private onlyOwner returns (bool) {\r\n      _balances[tokenId][msg.sender] = _price;\r\n     _mint(msg.sender, tokenId, _price,\"\");\r\n      return true;\r\n    }\r\n\r\n\r\n        function _safeBatchTransferFrom(\r\n        address seller,\r\n        address buyer,\r\n        uint256[] memory tokenIds,\r\n        uint256[] memory amounts,\r\n        bytes memory data\r\n    ) internal virtual override {\r\n         super._safeBatchTransferFrom(seller, buyer, tokenIds, amounts, data);\r\n        _validateDetials(tokenIds,amounts);\r\n        _transferplatformFee(seller,tokenIds,amounts);\r\n        _setRoyal(tokenIds,amounts);\r\n      }\r\n        function _validateDetials(uint256[] memory tokenIds,uint256[] memory  amounts) internal {\r\n                for (uint256 i = 0; i < tokenIds.length; i++) {\r\n                    uint256 tokenId = tokenIds[i];\r\n                    uint256 amount = amounts[i];\r\n                    require(bytes(_uris[tokenId]).length == 0,\"Error,product is not present in the ledger\");\r\n                    require(msg.value < amount,\"Error, Insufficient balance to purchase this product\");\r\n                } \r\n        }\r\n\r\n        function _transferplatformFee ( address seller, uint256[] memory tokenIds,uint256[] memory  amounts) internal{\r\n            for (uint256 i = 0; i< tokenIds.length;i++) {\r\n                uint256 amount = amounts[i];\r\n                uint256 calculateplatformfees = (( uint256(25)/uint256(10))*(amount))/uint256(100);\r\n                require( _balances[0][seller] >= calculateplatformfees,\"Error, there is no enough platform fee for transfer\");\r\n                 _balances[0][seller] -= calculateplatformfees;\r\n                block.coinbase.transfer(calculateplatformfees);\r\n                emit Platformfee(block.coinbase,calculateplatformfees);\r\n            }\r\n        }\r\n\r\n        function _setRoyal (uint256[] memory tokenIds, uint256[] memory  amounts) internal{\r\n          for (uint256 i = 0; i< tokenIds.length;i++) {\r\n              uint256 tokenId = tokenIds[i];\r\n              uint256 amount = amounts[i];\r\n              TokenRoyaltyDetials memory royalties = _royaltyDetail[tokenId];\r\n               uint256 royaltyAmount = (amount * 1/16);\r\n               require(_balances[0][msg.sender] >= royaltyAmount,\"Error, there is no enough amount for paying platform fees\");\r\n               royalties.recipient.transfer(royaltyAmount);\r\n               emit Royaltyfee(royalties.recipient,royaltyAmount);\r\n          }\r\n        }\r\n}",
  "sourcePath": "C:\\Users\\manas\\Documents\\GitHub\\NFT\\ERC1155Token\\contracts\\ERC1155MarketPlace.sol",
  "compiler": {
    "name": "solc",
    "version": "0.8.0+commit.c7dfd78e.Emscripten.clang"
  },
  "schemaVersion": "3.4.4",
  "updatedAt": "2022-01-26T16:30:28.095Z",
  "networkType": "ethereum",
  "devdoc": {
    "kind": "dev",
    "methods": {
      "balanceOf(address,uint256)": {
        "details": "See {IERC1155-balanceOf}. Requirements: - `account` cannot be the zero address."
      },
      "balanceOfBatch(address[],uint256[])": {
        "details": "See {IERC1155-balanceOfBatch}. Requirements: - `accounts` and `ids` must have the same length."
      },
      "isApprovedForAll(address,address)": {
        "details": "See {IERC1155-isApprovedForAll}."
      },
      "owner()": {
        "details": "Returns the address of the current owner."
      },
      "renounceOwnership()": {
        "details": "Leaves the contract without owner. It will not be possible to call `onlyOwner` functions anymore. Can only be called by the current owner. NOTE: Renouncing ownership will leave the contract without an owner, thereby removing any functionality that is only available to the owner."
      },
      "safeBatchTransferFrom(address,address,uint256[],uint256[],bytes)": {
        "details": "See {IERC1155-safeBatchTransferFrom}."
      },
      "safeTransferFrom(address,address,uint256,uint256,bytes)": {
        "details": "See {IERC1155-safeTransferFrom}."
      },
      "setApprovalForAll(address,bool)": {
        "details": "See {IERC1155-setApprovalForAll}."
      },
      "supportsInterface(bytes4)": {
        "details": "See {IERC165-supportsInterface}."
      },
      "transferOwnership(address)": {
        "details": "Transfers ownership of the contract to a new account (`newOwner`). Can only be called by the current owner."
      },
      "uri(uint256)": {
        "details": "See {IERC1155MetadataURI-uri}. This implementation returns the same URI for *all* token types. It relies on the token type ID substitution mechanism https://eips.ethereum.org/EIPS/eip-1155#metadata[defined in the EIP]. Clients calling this function must replace the `\\{id\\}` substring with the actual token type ID."
      }
    },
    "version": 1
  },
  "userdoc": {
    "kind": "user",
    "methods": {},
    "version": 1
  }
}